        1     2         34  5         6       7        8                                                 9           10           11           12           13           14           15180
760829102201105        84C030000000057628032011078524720                   ARCHIPLAN PROYECTOS DE ARQ .S.A      3106669            0            0      3106669            0            0
760829102201105         1C030000012063307042011077587770                               SUPER PUCON ORIENTE            0        31855         6053        37908           61         6053
760829102201105        90C030000010204511042011077137860                                 COMERCIAL K LTDA.            0       131425        24971       156396            0            0x
760829102201105        26C030000037400521042011077575300                         FERRETERIA ELTIT LIMITADA            0        36975         7025        44000           70         7025
760829102201105        25C030000037400621042011077575300                         FERRETERIA ELTIT LIMITADA            0         4134          786         4920            8          786
760829102201105        24C030000037189721042011077575300                         FERRETERIA ELTIT LIMITADA            0        13824         2626        16450           26         2626
760829102201105        44C030000037406825042011077575300                         FERRETERIA ELTIT LIMITADA            0        94664        17986       112650            0            0
760829102201105        10C030000037327825042011077575300                         FERRETERIA ELTIT LIMITADA            0         6160         1170         7330            0            0
760829102201105        11C030000037329225042011077575300                         FERRETERIA ELTIT LIMITADA            0        22924         4356        27280            0            0
760829102201105        20C030000037195926042011077575300                         FERRETERIA ELTIT LIMITADA            0        21840         4150        25990            0            0
760829102201105        21C030000037196026042011077575300                         FERRETERIA ELTIT LIMITADA            0       470922        89475       560397            0            0
760829102201105        45C030000037416027042011077575300                         FERRETERIA ELTIT LIMITADA            0        66874        12706        79580            0            0
760829102201105         4C030000037332027042011077575300                         FERRETERIA ELTIT LIMITADA            0         6584         1251         7835            0            0
760829102201105        38C030000037418327042011077575300                         FERRETERIA ELTIT LIMITADA            0       941667       178917      1120584            0            0
760829102201105         3C030000037366427042011077575300                         FERRETERIA ELTIT LIMITADA            0        15849         3011        18860            0            0
760829102201105         5C030000037332628042011077575300                         FERRETERIA ELTIT LIMITADA            0        73118        13892        87010            0            0
760829102201105        37C030000037102629042011077575300                         FERRETERIA ELTIT LIMITADA            0        98319        18681       117000            0            0
760829102201105        12C030000035546529042011078633060SOC. AGRICOLA HUIFQUENCO Y CIA. LTDA. (AGRIC.VILLA            0         2832          538         3370            0            0
760829102201105        41C030000037421929042011077575300                         FERRETERIA ELTIT LIMITADA            0         5739         1091         6830            0            0
760829102201105         7C030000000094730042011012092274                      EDMUNDO CRISTIAN TORO MORAGA            0       380000        72200       452200          722        72200
760829102201105         9C030000005577830042011079979240                       TRANSPORTES TROMEN CIA LTDA            0        82500        15675        98175          157        15675
760829102201105        76C030000008908230042011076436270                           RENTA EQUIP CHILE LTDA.            0       677970       128814       806784         1288       128814
760829102201105        75C030000008866730042011076436270                           RENTA EQUIP CHILE LTDA.            0       153090        29087       182177          291        29087
760829102201105         6C030000037372530042011077575300                         FERRETERIA ELTIT LIMITADA            0        26487         5033        31520           50         5033
760829102201105        27C030000000117430042011013464360                    CARLOS PATRICIO FREY PARRAGUEZ            0        35294         6706        42000           67         6706
760829102201105        15C030000037373802052011077575300                         FERRETERIA ELTIT LIMITADA            0        84857        16123       100980          161        16123
760829102201105        13C033003693529502052011096792430                                      SODIMAC S.A.            0        17966         3414        21380            0            0
760829102201105        40C030000037431102052011077575300                         FERRETERIA ELTIT LIMITADA            0        12857         2443        15300            0            0
760829102201105        39C030000037429802052011077575300                         FERRETERIA ELTIT LIMITADA            0       106017        20143       126160            0            0
760829102201105        19C030000037374102052011077575300                         FERRETERIA ELTIT LIMITADA            0         4059          771         4830            0            0
760829102201105        18C030000037451102052011077575300                         FERRETERIA ELTIT LIMITADA            0         7958         1512         9470            0            0
760829102201105        32C030000000133503052011009096828                    FRANCISCO ADRIAN RAMOS VIVANCO            0     10553699      2005203     12558902            0            0x
760829102201105         2C030000037451303052011077575300                         FERRETERIA ELTIT LIMITADA            0        17613         3347        20960            0            0
760829102201105        28C030000037107103052011077575300                         FERRETERIA ELTIT LIMITADA            0       176555        33545       210100            0            0
760829102201105        23C030000037452904052011077575300                         FERRETERIA ELTIT LIMITADA            0        14874         2826        17700            0            0
760829102201105        22C030000037453204052011077575300                         FERRETERIA ELTIT LIMITADA            0         9109         1731        10840            0            0
760829102201105        55C030000037433404052011077575300                         FERRETERIA ELTIT LIMITADA            0        30588         5812        36400            0            0
760829102201105        42C030000037436605052011077575300                         FERRETERIA ELTIT LIMITADA            0         1042          198         1240            0            0
760829102201105         8C030000037455205052011077575300                         FERRETERIA ELTIT LIMITADA            0         7723         1467         9190            0            0
760829102201105        29C030000102168705052011091755000                             CEMENTOS BIO BIO S.A.            0       900550       171105      1071655            0            0
760829102201105        43C030000037437005052011077575300                         FERRETERIA ELTIT LIMITADA            0       122017        23183       145200            0            0
760829102201105        48C030000037446006052011077575300                         FERRETERIA ELTIT LIMITADA            0        32979         6266        39245            0            0
760829102201105        54C030000037115906052011077575300                         FERRETERIA ELTIT LIMITADA            0        99832        18968       118800          190        18968
760829102201105        33C030000037444206052011077575300                         FERRETERIA ELTIT LIMITADA            0        14303         2717        17020            0            0
760829102201105        83C030000000027406052011076042551                        CONST ANTONIO BARRETO LTDA            0     18812771      3574426     22387197            0            0
760829102201105        17C030000000012606052011012183851                      FRANCISCO VASQUEZ VILLARROEL            0      1448320       275181      1723501            0            0
760829102201105        16C030000037383906052011077575300                         FERRETERIA ELTIT LIMITADA            0        29966         5694        35660            0            0
760829102201105        14C030000037456506052011077575300                         FERRETERIA ELTIT LIMITADA            0         2588          492         3080            0            0
760829102201105        53C030000037116606052011077575300                         FERRETERIA ELTIT LIMITADA            0        19555         3715        23270            0            0
760829102201105        82C030000037122109052011077575300                         FERRETERIA ELTIT LIMITADA            0        17479         3321        20800           33         3321
760829102201105        46C030000037123609052011077575300                         FERRETERIA ELTIT LIMITADA            0        69555        13215        82770          132        13215
760829102201105        50C030000037120809052011077575300                         FERRETERIA ELTIT LIMITADA            0         3017          573         3590            0            0
760829102201105        49C030000037120609052011077575300                         FERRETERIA ELTIT LIMITADA            0        35613         6767        42380            0            0
760829102201105        47C030000037122609052011077575300                         FERRETERIA ELTIT LIMITADA            0         9916         1884        11800            0            0
760829102201105        31C030000037458509052011077575300                         FERRETERIA ELTIT LIMITADA            0         7403         1407         8810            0            0
760829102201105        51C030000037124910052011077575300                         FERRETERIA ELTIT LIMITADA            0        13277         2523        15800            0            0
760829102201105        77C060000000992810052011076436270                           RENTA EQUIP CHILE LTDA.            0       481140        91417       572557          914        91417
760829102201105        81C060000006221710052011077575300                         FERRETERIA ELTIT LIMITADA            0        17479         3321        20800           33         3321
760829102201105        52C030000037125010052011077575300                         FERRETERIA ELTIT LIMITADA            0        49689         9441        59130            0            0
760829102201105        91C060000001240311052011077137860                                 COMERCIAL K LTDA.            0        89224        16953       106177            0            0x
760829102201105        30C030000037390411052011077575300                         FERRETERIA ELTIT LIMITADA            0        63147        11998        75145          120        11998
760829102201105        64C030000037129012052011077575300                         FERRETERIA ELTIT LIMITADA            0        65924        12526        78450            0            0
760829102201105        35C030000037395913052011077575300                         FERRETERIA ELTIT LIMITADA            0         2622          498         3120            5          498
760829102201105        63C030000037130913052011077575300                         FERRETERIA ELTIT LIMITADA            0       160911        30573       191484            0            0
760829102201105        36C030000037394713052011077575300                         FERRETERIA ELTIT LIMITADA            0         4050          770         4820            8          770
760829102201105        71C030000037562214052011077575300                         FERRETERIA ELTIT LIMITADA            0      8516091      1618057     10134148            0            0
760829102201105        74C030000037562114052011077575300                         FERRETERIA ELTIT LIMITADA            0      2749069       522323      3271392            0            0
760829102201105        72C030000037562014052011077575300                         FERRETERIA ELTIT LIMITADA            0      8712038      1655287     10367325            0            0
760829102201105        70C030000037562314052011077575300                         FERRETERIA ELTIT LIMITADA            0      2699039       512817      3211856            0            0
760829102201105        69C030000037561714052011077575300                         FERRETERIA ELTIT LIMITADA            0        66303        12598        78901            0            0
760829102201105        61C030000037132614052011077575300                         FERRETERIA ELTIT LIMITADA            0       505479        96041       601520            0            0
760829102201105        62C030000037132714052011077575300                         FERRETERIA ELTIT LIMITADA            0       569025       108115       677140            0            0
760829102201105        57C030000005232816052011076353910                       SUPER. SANTA VICTORIA LTDA.            0         4533          861         5394            9          861
760829102201105        34C030000037500116052011077575300                         FERRETERIA ELTIT LIMITADA            0       132689        25211       157900          252        25211
760829102201105        58C030000000012717052011012183851                      FRANCISCO VASQUEZ VILLARROEL            0       893844       169830      1063674            0            0
760829102201105        56C030000005280717052011076353910                       SUPER. SANTA VICTORIA LTDA.            0         4244          806         5050            8          806
760829102201105        59C030000037141918052011077575300                         FERRETERIA ELTIT LIMITADA            0       446295        84796       531091            0            0
760829102201105        60C030000037141818052011077575300                         FERRETERIA ELTIT LIMITADA            0       198342        37685       236027            0            0
760829102201105        68C030000037570418052011077575300                         FERRETERIA ELTIT LIMITADA            0        15164         2881        18045            0            0
760829102201105        65C030000037140218052011077575300                         FERRETERIA ELTIT LIMITADA            0        72397        13756        86153            0            0
760829102201105        66C030000037141518052011077575300                         FERRETERIA ELTIT LIMITADA            0        15907         3022        18929            0            0
760829102201105        67C030000037570518052011077575300                         FERRETERIA ELTIT LIMITADA            0        20630         3920        24550            0            0
760829102201105        80C030000000167519052011005899533                           ALEJANDRO BRAVO CABRERA            0       246000        46740       292740          467        46740
760829102201105        78C030000005639823052011079979240                       TRANSPORTES TROMEN CIA LTDA            0       880000       167200      1047200         1672       167200
760829102201105        73C030000000015623052011004877835                       LUZMIRA GLADYS CASTRO PEREZ            0      6700000      1273000      7973000            0            0
760829102201105        79C030000001099124052011003895003                          JAIME ALIRO SOTO QUEZADA            0        23950         4550        28500           46         4550
760829102201105        85C030000000012825052011012183851                      FRANCISCO VASQUEZ VILLARROEL            0       180000        34200       214200            0            0
760829102201105        95C030000000082130052011009388589                         ARAVENA MORAGA JOSE OSCAR            0       384000        72960       456960          730        72960
760829102201105        94C030000000120330052011013464360                    CARLOS PATRICIO FREY PARRAGUEZ            0        96471        18329       114800          183        18329
760829102201105        93C030000000120430052011013464360                    CARLOS PATRICIO FREY PARRAGUEZ            0       120336        22864       143200          229        22864
760829102201105        96C030000002265930052011099500750                                      METECNO S.A.            0     21771741      4136631     25908372            0            0x
760829102201105        88C030000093377930052011083162400                                      EMARESA S.A.            0       735000       139650       874650            0            0x
760829102201105        92C030000005653931052011079979240                       TRANSPORTES TROMEN CIA LTDA            0       680000       129200       809200         1292       129200
760829102201105        89C030000001218531052011008147925                      INOSTROZA PEREZ HUGO ARNOLDO            0      3611930       686267      4298197            0            0x
760829102201105        87C030000000028731052011076042551                        CONST ANTONIO BARRETO LTDA            0      3168955       602101      3771056            0            0
760829102201105        86C030000000167131052011007393867                           MEZA MONJE ALIRO HERNAN            0        36000         6840        42840           68         6840
