32600708775753404SUPERMERCADO ELTIT LTDA.           OHIGGINS 336                       PUCON                    033811497VALLADARES MUÑOZ FRANCISCA DEL CARM10000000051000000116540000000005827              
32600708775753404SUPERMERCADO ELTIT LTDA.           OHIGGINS 336                       PUCON                    038289527ELIANA JORQUERA CIFUENTES          10000000027000000061320000000003066              
32600708775753404SUPERMERCADO ELTIT LTDA.           OHIGGINS 336                       PUCON                    039809915MARIA LUISA REBOLLEDO              10000000111000000254760000000012738              
32600708775753404SUPERMERCADO ELTIT LTDA.           OHIGGINS 336                       PUCON                    044656841RUBEN LECHUGA FARIAS               10000000002000000003860000000000193              
32600708775753404SUPERMERCADO ELTIT LTDA.           OHIGGINS 336                       PUCON                    044682141HERNAN SORIANO AVILA               10000000002000000004980000000000249              
32600708775753404SUPERMERCADO ELTIT LTDA.           OHIGGINS 336                       PUCON                    046640926LUIS HERNAN ECHEÑIQUE TALAVERA     10000000002000000004060000000000203              
32600708775753404SUPERMERCADO ELTIT LTDA.           OHIGGINS 336                       PUCON                    047801893NELSON FONSECA                     10000000003000000007580000000000379              
32600708775753404SUPERMERCADO ELTIT LTDA.           OHIGGINS 336                       PUCON                    048778356CASTRO PEREZ LUZMIRA GLADYS        10000000001000000001160000000000058              
32600708775753404SUPERMERCADO ELTIT LTDA.           OHIGGINS 336                       PUCON                    050774813ELBA GONZALEZ CANALES              10000000060000000139100000000006955              
32600708775753404SUPERMERCADO ELTIT LTDA.           OHIGGINS 336                       PUCON                    054542070CARLOS AMALLER                     10000000000000000000960000000000048              
32600708775753404SUPERMERCADO ELTIT LTDA.           OHIGGINS 336                       PUCON                    057905344BLANCA SONIA AGUAYO YANEZ          10000000005000000011460000000000573              
32600708775753404SUPERMERCADO ELTIT LTDA.           OHIGGINS 336                       PUCON                    059091220LIDIA MERA MANRIQUEZ               10000000003000000005760000000000288              
32600708775753404SUPERMERCADO ELTIT LTDA.           OHIGGINS 336                       PUCON                    059488678PATRICIA SARMIENTO FLORES          10000000001000000002680000000000134              
32600708775753404SUPERMERCADO ELTIT LTDA.           OHIGGINS 336                       PUCON                    059521691NOEMI VILLALOBOS SILVA             10000000009000000020920000000001046              
32600708775753404SUPERMERCADO ELTIT LTDA.           OHIGGINS 336                       PUCON                    06000126KROBERTO TOGNARELLI BARRAGAN        10000000001000000001720000000000086              
32600708775753404SUPERMERCADO ELTIT LTDA.           OHIGGINS 336                       PUCON                    06029190KALBERTO VASQUEZ BUSTOS             10000000003000000006060000000000303              
32600708775753404SUPERMERCADO ELTIT LTDA.           OHIGGINS 336                       PUCON                    060333920ALEJANDRO JIMENEZ DIAZ             10000000108000000248920000000012446              
32600708775753404SUPERMERCADO ELTIT LTDA.           OHIGGINS 336                       PUCON                    06163150KLARA LARA ARMANDO ANTONIO          10000000109000000249760000000012488              
32600708775753404SUPERMERCADO ELTIT LTDA.           OHIGGINS 336                       PUCON                    064280317LEONIDES AILLAPAN VERGARA          10000000008000000018040000000000902              
32600708775753404SUPERMERCADO ELTIT LTDA.           OHIGGINS 336                       PUCON                    065073749FERNANDO ARRATIA MONROY            10000000002000000003860000000000193              
32600708775753404SUPERMERCADO ELTIT LTDA.           OHIGGINS 336                       PUCON                    065713837MARTINEZ RIVAS LUISA GRACIELA      10000000019000000043860000000002193              
32600708775753404SUPERMERCADO ELTIT LTDA.           OHIGGINS 336                       PUCON                    065731630HOTEL LOS MAITENES                 10000000013000000030060000000001503              
32600708775753404SUPERMERCADO ELTIT LTDA.           OHIGGINS 336                       PUCON                    067088484SAEZ VALLEJOS BALBINA              10000000001000000003060000000000153              
32600708775753404SUPERMERCADO ELTIT LTDA.           OHIGGINS 336                       PUCON                    067729757DELLANIRA PAILLAMILLA GOMEZ        10000000022000000051020000000002551              
32600708775753404SUPERMERCADO ELTIT LTDA.           OHIGGINS 336                       PUCON                    067781252HUAIQUIFIL JARA LUIS MARIANO       10000000004000000010100000000000505              
32600708775753404SUPERMERCADO ELTIT LTDA.           OHIGGINS 336                       PUCON                    070181940SILVIA MONARDES                    10000000002000000004920000000000246              
32600708775753404SUPERMERCADO ELTIT LTDA.           OHIGGINS 336                       PUCON                    072630394GERTRUDIS RIVAS TORRES             10000000001000000002760000000000138              
32600708775753404SUPERMERCADO ELTIT LTDA.           OHIGGINS 336                       PUCON                    072726073MIRIAM ELGUETA TRAUB.              10000000001000000002520000000000126              
32600708775753404SUPERMERCADO ELTIT LTDA.           OHIGGINS 336                       PUCON                    072844521LUIS A. SCHNEIDER Z.               10000000007000000016020000000000801              
32600708775753404SUPERMERCADO ELTIT LTDA.           OHIGGINS 336                       PUCON                    072908678ABEL COLPIHUEQUE                   10000000001000000002880000000000144              
32600708775753404SUPERMERCADO ELTIT LTDA.           OHIGGINS 336                       PUCON                    073148596AURISTELADEL CARMEN CORNEJO NAVARRO10000000000000000000320000000000016              
32600708775753404SUPERMERCADO ELTIT LTDA.           OHIGGINS 336                       PUCON                    073613132CAMPOS GONZALEZ BERNARDITA DEL C.  10000000001000000001740000000000087              
32600708775753404SUPERMERCADO ELTIT LTDA.           OHIGGINS 336                       PUCON                    074724825RENE MONTALBA                      10000000001000000002220000000000111              
32600708775753404SUPERMERCADO ELTIT LTDA.           OHIGGINS 336                       PUCON                    074927890EDUARDO MARDONES ZUÑIGA            10000000007000000015600000000000780              
32600708775753404SUPERMERCADO ELTIT LTDA.           OHIGGINS 336                       PUCON                    077407200GRACIELA GUAJARDO HERNANDEZ        10000000002000000005520000000000276              
32600708775753404SUPERMERCADO ELTIT LTDA.           OHIGGINS 336                       PUCON                    078572507CARLOS RICHARD GUDENSCHWAGER       10000000001000000001280000000000064              
32600708775753404SUPERMERCADO ELTIT LTDA.           OHIGGINS 336                       PUCON                    080888686VICTOR HUGO GUTIERREZ TORO         10000000005000000010480000000000524              
32600708775753404SUPERMERCADO ELTIT LTDA.           OHIGGINS 336                       PUCON                    082385037EDELMIRA BARRIL EPUIN              10000000003000000006160000000000308              
32600708775753404SUPERMERCADO ELTIT LTDA.           OHIGGINS 336                       PUCON                    082481273VILLAGRAN SOTO ELCIRA AMELIA       10000000001000000003140000000000157              
32600708775753404SUPERMERCADO ELTIT LTDA.           OHIGGINS 336                       PUCON                    083463201YAZMIN APARA                       10000000111000000255940000000012797              
32600708775753404SUPERMERCADO ELTIT LTDA.           OHIGGINS 336                       PUCON                    08352846KGLADYS FLORES RUIZ                 10000000004000000009580000000000479              
32600708775753404SUPERMERCADO ELTIT LTDA.           OHIGGINS 336                       PUCON                    083609427DAGOBERTO GONZALEZ SEGUEL          10000000000000000000940000000000047              
32600708775753404SUPERMERCADO ELTIT LTDA.           OHIGGINS 336                       PUCON                    084322970VERGARA VALLADARES JORGE ALBERTO   10000000015000000034120000000001706              
32600708775753404SUPERMERCADO ELTIT LTDA.           OHIGGINS 336                       PUCON                    08564744KOYARCE OSCAR                       10000000005000000011280000000000564              
32600708775753404SUPERMERCADO ELTIT LTDA.           OHIGGINS 336                       PUCON                    088754484VALERIA ANDREA GUTIERREZ PAREJA    10000000031000000072200000000003610              
32600708775753404SUPERMERCADO ELTIT LTDA.           OHIGGINS 336                       PUCON                    091522721MUÑOZ GUTIERREZ CATALINA           10000000003000000007560000000000378              
32600708775753404SUPERMERCADO ELTIT LTDA.           OHIGGINS 336                       PUCON                    092803112VASQUEZ VASQUEZ FERMIN IVAN        10000000000000000001080000000000054              
32600708775753404SUPERMERCADO ELTIT LTDA.           OHIGGINS 336                       PUCON                    095257623VILLAGRAN JOHANA                   10000000002000000003640000000000182              
32600708775753404SUPERMERCADO ELTIT LTDA.           OHIGGINS 336                       PUCON                    096312814SILVIA GUSMAN                      10000000000000000000960000000000048              
32600708775753404SUPERMERCADO ELTIT LTDA.           OHIGGINS 336                       PUCON                    097309884ERICA GOEPPINGER BARRERA           10000000008000000017880000000000894              
32600708775753404SUPERMERCADO ELTIT LTDA.           OHIGGINS 336                       PUCON                    100773708SANDRA ZAPATTA BERGEZ              10000000002000000004240000000000212              
32600708775753404SUPERMERCADO ELTIT LTDA.           OHIGGINS 336                       PUCON                    102825810GUILLERMO AGUIRRE CIFUENTES        10000000002000000003680000000000184              
32600708775753404SUPERMERCADO ELTIT LTDA.           OHIGGINS 336                       PUCON                    103161932QUINTANA CHAVEZ HERMINDA ELOIDA    10000000034000000077700000000003885              
32600708775753404SUPERMERCADO ELTIT LTDA.           OHIGGINS 336                       PUCON                    103698774GUTIERREZ CHAVEZ RAFAEL ALEJANDRO  10000000003000000006460000000000323              
32600708775753404SUPERMERCADO ELTIT LTDA.           OHIGGINS 336                       PUCON                    104659349SAMUR JORQUERA MARIA EUGENIA       10000000213000000489320000000024466              
32600708775753404SUPERMERCADO ELTIT LTDA.           OHIGGINS 336                       PUCON                    105626053CLAUDIA GUTIERREZ P                10000000022000000049840000000002492              
32600708775753404SUPERMERCADO ELTIT LTDA.           OHIGGINS 336                       PUCON                    105875886BENAVENTE HORMAZABAL EUGENIO RODRIG10000000004000000010020000000000501              
32600708775753404SUPERMERCADO ELTIT LTDA.           OHIGGINS 336                       PUCON                    106016070MATIAS MORENO DIAZ                 10000000004000000008200000000000410              
32600708775753404SUPERMERCADO ELTIT LTDA.           OHIGGINS 336                       PUCON                    106416419MARISOL CONTRERAS HEREDIA          10000000025000000057320000000002866              
32600708775753404SUPERMERCADO ELTIT LTDA.           OHIGGINS 336                       PUCON                    106667950ANDREA BARRA                       10000000004000000010300000000000515              
32600708775753404SUPERMERCADO ELTIT LTDA.           OHIGGINS 336                       PUCON                    107935673JEANETTE MARLENE MUÑOZ TAPIA       10000000002000000003660000000000183              
32600708775753404SUPERMERCADO ELTIT LTDA.           OHIGGINS 336                       PUCON                    108468521KARINA SAN MARTIN                  10000000009000000020060000000001003              
32600708775753404SUPERMERCADO ELTIT LTDA.           OHIGGINS 336                       PUCON                    109429082ISAAC COMEN OLIVERA                10000000001000000001940000000000097              
32600708775753404SUPERMERCADO ELTIT LTDA.           OHIGGINS 336                       PUCON                    109945706CARRASCO TARDON XIMENA DE LOURDES  10000000058000000134260000000006713              
32600708775753404SUPERMERCADO ELTIT LTDA.           OHIGGINS 336                       PUCON                    114105473MOLINA CALFUNAO JOSE MIGUEL        10000000000000000001120000000000056              
32600708775753404SUPERMERCADO ELTIT LTDA.           OHIGGINS 336                       PUCON                    114106097SANDRA QUINTEROS SANDOVAL          10000000016000000035980000000001799              
32600708775753404SUPERMERCADO ELTIT LTDA.           OHIGGINS 336                       PUCON                    11803368KCRISTIAN VALDEBENITO               10000000122000000280640000000014032              
32600708775753404SUPERMERCADO ELTIT LTDA.           OHIGGINS 336                       PUCON                    121100657MARIELA VALENZUELA  BARROSO        10000000002000000004140000000000207              
32600708775753404SUPERMERCADO ELTIT LTDA.           OHIGGINS 336                       PUCON                    121685701EILLEN LISET COLIPE FLORES         10000000014000000033020000000001651              
32600708775753404SUPERMERCADO ELTIT LTDA.           OHIGGINS 336                       PUCON                    122782670RODRIGO CURICHE SAEZ.              10000000004000000008860000000000443              
32600708775753404SUPERMERCADO ELTIT LTDA.           OHIGGINS 336                       PUCON                    123357876MARTA LAGOS YAÑEZ                  10000000001000000001820000000000091              
32600708775753404SUPERMERCADO ELTIT LTDA.           OHIGGINS 336                       PUCON                    12335852KGERMAN FIGUEROA LARA               10000000017000000039320000000001966              
32600708775753404SUPERMERCADO ELTIT LTDA.           OHIGGINS 336                       PUCON                    124978432MARCELA LORETO PALMA LEON          10000000015000000033420000000001671              
32600708775753404SUPERMERCADO ELTIT LTDA.           OHIGGINS 336                       PUCON                    125364586PATRICIA LOPEZ GARRIDO             10000000001000000002680000000000134              
32600708775753404SUPERMERCADO ELTIT LTDA.           OHIGGINS 336                       PUCON                    125654150CARRASCO MILLAQUEO RAUL HERNAN     10000000013000000029880000000001494              
32600708775753404SUPERMERCADO ELTIT LTDA.           OHIGGINS 336                       PUCON                    127422397EDUARDO GONZALEZ LAURIE            10000000001000000002900000000000145              
32600708775753404SUPERMERCADO ELTIT LTDA.           OHIGGINS 336                       PUCON                    128096124PABLO ARRIAZA VILLALON             10000000001000000002920000000000146              
32600708775753404SUPERMERCADO ELTIT LTDA.           OHIGGINS 336                       PUCON                    131137095CANDICE SPIELBERG VERA             10000000004000000010040000000000502              
32600708775753404SUPERMERCADO ELTIT LTDA.           OHIGGINS 336                       PUCON                    131586434LUIS JUVENAL GARCIA BARRIENTOS     10000000000000000000700000000000035              
32600708775753404SUPERMERCADO ELTIT LTDA.           OHIGGINS 336                       PUCON                    132564833ANDRES BUSTAMANTE                  10000000002000000003720000000000186              
32600708775753404SUPERMERCADO ELTIT LTDA.           OHIGGINS 336                       PUCON                    135108618GONZALEZ GARCIA LORENA ALEJANDRA   10000000012000000026500000000001325              
32600708775753404SUPERMERCADO ELTIT LTDA.           OHIGGINS 336                       PUCON                    136864963GUSTAVO ARENAS                     10000000005000000010860000000000543              
32600708775753404SUPERMERCADO ELTIT LTDA.           OHIGGINS 336                       PUCON                    138903168DANIEL ARREDONDO MORALES           10000000000000000001040000000000052              
32600708775753404SUPERMERCADO ELTIT LTDA.           OHIGGINS 336                       PUCON                    14076857KSILVIA INOSTROZA                   10000000010000000022420000000001121              
32600708775753404SUPERMERCADO ELTIT LTDA.           OHIGGINS 336                       PUCON                    143367347JUAN PABLO DOÑA                    10000000008000000018860000000000943              
32600708775753404SUPERMERCADO ELTIT LTDA.           OHIGGINS 336                       PUCON                    145006066KLAUS THIELE                       10000000000000000000960000000000048              
32600708775753404SUPERMERCADO ELTIT LTDA.           OHIGGINS 336                       PUCON                    145132576CARLA SOFIA PIANA STOCKHOLM        10000000021000000049060000000002453              
32600708775753404SUPERMERCADO ELTIT LTDA.           OHIGGINS 336                       PUCON                    145548373SALOTTO LEONARDO JUAN              10000000000000000000860000000000043              
32600708775753404SUPERMERCADO ELTIT LTDA.           OHIGGINS 336                       PUCON                    145855551GINO GANAHL                        10000000000000000000980000000000049              
32600708775753404SUPERMERCADO ELTIT LTDA.           OHIGGINS 336                       PUCON                    146450172CHRISTA WINKLER/VON WEDELSTAEDT    10000000002000000004380000000000219              
32600708775753404SUPERMERCADO ELTIT LTDA.           OHIGGINS 336                       PUCON                    146528465LAURA GUADALUPE MARQUEZ R.         10000000001000000002160000000000108              
32600708775753404SUPERMERCADO ELTIT LTDA.           OHIGGINS 336                       PUCON                    212827207MARINIZA ETSUKO IIYAMA             10000000001000000001800000000000090              
32600708775753404SUPERMERCADO ELTIT LTDA.           OHIGGINS 336                       PUCON                    213513052SCOTT ROBERTS MCGIFFERT            10000000028000000065220000000003261              
32600708775753404SUPERMERCADO ELTIT LTDA.           OHIGGINS 336                       PUCON                    507748139ELBA GONZALEZ CANALES              10000000001000000001760000000000088              
32600708775753404SUPERMERCADO ELTIT LTDA.           OHIGGINS 336                       PUCON                    532385903SUCESION ROBERTO NAPPE GEIS        10000000003000000006720000000000336              
32600708775753404SUPERMERCADO ELTIT LTDA.           OHIGGINS 336                       PUCON                    533088236PALMA GONZALEZ MARIO ALEJANDRO Y OT10000000030000000069900000000003495              
32600708775753404SUPERMERCADO ELTIT LTDA.           OHIGGINS 336                       PUCON                    653055307HERMANAS MISIONERAS FRANCISCANAS DE10000000023000000052340000000002617              
32600708775753404SUPERMERCADO ELTIT LTDA.           OHIGGINS 336                       PUCON                    700726002JUNTA NACIONAL DE JARDINES INFANTIL10000000002000000005320000000000266              
32600708775753404SUPERMERCADO ELTIT LTDA.           OHIGGINS 336                       PUCON                    760133108SOC. TURISTICA ALMAHUE LTDA.       10000000002000000004040000000000202              
32600708775753404SUPERMERCADO ELTIT LTDA.           OHIGGINS 336                       PUCON                    760175323FRANZ Y CATALAN MYP LIMITADA.      10000000014000000032480000000001624              
32600708775753404SUPERMERCADO ELTIT LTDA.           OHIGGINS 336                       PUCON                    760360708SOCIEDAD COMERCIAL PATAGONIA SWEET 10000000009000000020380000000001019              
32600708775753404SUPERMERCADO ELTIT LTDA.           OHIGGINS 336                       PUCON                    760968404FIGUEROA Y FIGUEROA LTDA           10000000002000000004100000000000205              
32600708775753404SUPERMERCADO ELTIT LTDA.           OHIGGINS 336                       PUCON                    761087703VAN BEBBER Y COMPTON LTDA          10000000001000000001280000000000064              
32600708775753404SUPERMERCADO ELTIT LTDA.           OHIGGINS 336                       PUCON                    76130190KCOMERCIAL CARDINI Y CARDINI LIMITAD10000000019000000043120000000002156              
32600708775753404SUPERMERCADO ELTIT LTDA.           OHIGGINS 336                       PUCON                    761400509COMERCIALIZADORA VIENTO DEL SUR    10000000004000000010120000000000506              
32600708775753404SUPERMERCADO ELTIT LTDA.           OHIGGINS 336                       PUCON                    761525700REFUGIO PENINSULA LIMITADA         10000000009000000021080000000001054              
32600708775753404SUPERMERCADO ELTIT LTDA.           OHIGGINS 336                       PUCON                    761672002TURISMOCH Y CO LIMITADA            10000000027000000061320000000003066              
32600708775753404SUPERMERCADO ELTIT LTDA.           OHIGGINS 336                       PUCON                    762792303ALIMENTOS RAP LIMITADA             10000000011000000024740000000001237              
32600708775753404SUPERMERCADO ELTIT LTDA.           OHIGGINS 336                       PUCON                    762997207MACRO S.A                          10000000000000000001000000000000050              
32600708775753404SUPERMERCADO ELTIT LTDA.           OHIGGINS 336                       PUCON                    763208206SOC. GAST. ARCHIDUC S.A.           10000000085000000195560000000009778              
32600708775753404SUPERMERCADO ELTIT LTDA.           OHIGGINS 336                       PUCON                    763258904SOCIEDAD COMERCIAL AGRICOLA QUIMEY-10000000002000000005160000000000258              
32600708775753404SUPERMERCADO ELTIT LTDA.           OHIGGINS 336                       PUCON                    763586901OCHO S.A.                          10000000005000000010500000000000525              
32600708775753404SUPERMERCADO ELTIT LTDA.           OHIGGINS 336                       PUCON                    763877108SOC . MADRE TIERRA LTDA            10000000017000000040160000000002008              
32600708775753404SUPERMERCADO ELTIT LTDA.           OHIGGINS 336                       PUCON                    764233204COM. EVENTOS C Y R LMTDA.          10000000010000000021960000000001098              
32600708775753404SUPERMERCADO ELTIT LTDA.           OHIGGINS 336                       PUCON                    767104502SOC. GASTRONOMICA NOBIS VIETTI Y HA10000000010000000022580000000001129              
32600708775753404SUPERMERCADO ELTIT LTDA.           OHIGGINS 336                       PUCON                    767371209FIBRA CHILE EIRL                   10000000001000000001620000000000081              
32600708775753404SUPERMERCADO ELTIT LTDA.           OHIGGINS 336                       PUCON                    768904901TURISMO JUAN RODRIGO COLIHUEQUE VAR10000000001000000001580000000000079              
32600708775753404SUPERMERCADO ELTIT LTDA.           OHIGGINS 336                       PUCON                    769283900SOCIEDAD COMERCIAL CAFE DE LA P LTD10000000008000000018580000000000929              
32600708775753404SUPERMERCADO ELTIT LTDA.           OHIGGINS 336                       PUCON                    769583904SOCIEDAD COMERCIAL CAFE DE LA P LTD10000000246000000566300000000028315              
32600708775753404SUPERMERCADO ELTIT LTDA.           OHIGGINS 336                       PUCON                    770099102GASTRONOMICA NAUKANA LTDA.         10000000006000000012680000000000634              
32600708775753404SUPERMERCADO ELTIT LTDA.           OHIGGINS 336                       PUCON                    770110106CONSTRUCTORA TRANCURA LTDA.        10000000000000000000960000000000048              
32600708775753404SUPERMERCADO ELTIT LTDA.           OHIGGINS 336                       PUCON                    771028705DADA COMUNICACION LIMITADA         10000000005000000010740000000000537              
32600708775753404SUPERMERCADO ELTIT LTDA.           OHIGGINS 336                       PUCON                    772137508VILLARRICAS PEAK                   10000000019000000043020000000002151              
32600708775753404SUPERMERCADO ELTIT LTDA.           OHIGGINS 336                       PUCON                    775877707SUPERMERCADO PUCON ORIENTE LTDA.   10000000765000001758540000000087927              
32600708775753404SUPERMERCADO ELTIT LTDA.           OHIGGINS 336                       PUCON                    777860208COMERCIAL CROSTONS LIMITADA        10000000008000000018180000000000909              
32600708775753404SUPERMERCADO ELTIT LTDA.           OHIGGINS 336                       PUCON                    77934570KSOCIEDAD EDUCACIONAL RAITRAI LTDA  10000000002000000003680000000000184              
32600708775753404SUPERMERCADO ELTIT LTDA.           OHIGGINS 336                       PUCON                    78190550KTURISMO Y REPRESENTACIONES GENERALE10000000017000000039740000000001987              
32600708775753404SUPERMERCADO ELTIT LTDA.           OHIGGINS 336                       PUCON                    78329270KCOMERCIAL SUIZA LTDA               10000000014000000031420000000001571              
32600708775753404SUPERMERCADO ELTIT LTDA.           OHIGGINS 336                       PUCON                    78391140KSOCIEDAD TURISTICA LOS ULMOS LTDA. 10000000002000000005380000000000269              
32600708775753404SUPERMERCADO ELTIT LTDA.           OHIGGINS 336                       PUCON                    78576420KINMOB E INV CORNEJO Y ALVAREZ LTDA 10000000001000000002540000000000127              
32600708775753404SUPERMERCADO ELTIT LTDA.           OHIGGINS 336                       PUCON                    786656001PISCICOLA HUILILCO LTDA.           10000000005000000010960000000000548              
32600708775753404SUPERMERCADO ELTIT LTDA.           OHIGGINS 336                       PUCON                    78870240KCONSTRUCTORA PUCON OESTE LTDA.     10000000015000000035000000000001750              
32600708775753404SUPERMERCADO ELTIT LTDA.           OHIGGINS 336                       PUCON                    789206309CENTRO VACACIONAL KERPEN LTDA.     10000000075000000171500000000008575              
32600708775753404SUPERMERCADO ELTIT LTDA.           OHIGGINS 336                       PUCON                    799036002BRNCIC Y OYARZO LTDA               10000000069000000158760000000007938              
32600708775753404SUPERMERCADO ELTIT LTDA.           OHIGGINS 336                       PUCON                    821830001CUERPO DE BOMBEROS DE PUCON        10000000014000000032340000000001617              
32600708775753404SUPERMERCADO ELTIT LTDA.           OHIGGINS 336                       PUCON                    827338001FUNDACION MAGISTERIO DE LA ARAUCANI10000000003000000007360000000000368              
32600708775753404SUPERMERCADO ELTIT LTDA.           OHIGGINS 336                       PUCON                    966365706INDUSTRIA FORESTAL MAFINSA LIMITADA10000000002000000004540000000000227              
32600708775753404SUPERMERCADO ELTIT LTDA.           OHIGGINS 336                       PUCON                    967522708HOTEL ANTUMALAL S.A.               10000000001000000001760000000000088              
32600708775753404SUPERMERCADO ELTIT LTDA.           OHIGGINS 336                       PUCON                    968078909SOC. GENERADORA DE SERVICIOS S.A.  10000000001000000002960000000000148              
32600708775753404SUPERMERCADO ELTIT LTDA.           OHIGGINS 336                       PUCON                    616720028TURISMO CH CO LIMITADA             10000000005000000012220000000000611              
