000041466952JULIO DEL CARMEN SANDOVAL M.                                                                                  99903037 000008400056898   000                                                 00057926+00000020350000000000000000000000000000000000000000000000000000000000000000000000000000000000000000000000000000000000000000000000000000000000000000000000000000000000000000000000000000000000000000000000000000000000000000020350
000041737611FUENZALIDA FERNANDEZ MIGUEL                                                                                   99903001 000002160490901   000                                                 00109701+00000266101000000000000000000000000000000000000000000000000000000000000000000000000000000000000000000000000000000000000000000000000000000000000000000000000000000000000000000000000000000000000000000000000000000000000000266101
000042139408AV.AGRICOLA MOISES MU¥OZ T.                                                                                   99903012 000072100133815   000                                                 00011893+00000018000000000000000000000000000000000000000000000000000000000000000000000000000000000000000000000000000000000000000000000000000000000000000000000000000000000000000000000000000000000000000000000000000000000000000000018000
000054859325HECTOR OMAR HIGUERA SANCHEZ                                                                                   99903001 000002400221409   000                                                 00063705+0000009057099999999-0000000125300063462+0000015762100000000000000000000000000000000000000000000000000000000000000000000000000000000000000000000000000000000000000000000000000000000000000000000000000000000000000000000000246938
000067935225RENE ULLOA RUBILAR                                                                                            99903012 000064700010943   000                                                 00000601+00000253250000000000000000000000000000000000000000000000000000000000000000000000000000000000000000000000000000000000000000000000000000000000000000000000000000000000000000000000000000000000000000000000000000000000000000253250
000069466176SEBASTIAN KUNZ CASTILLO                                                                                       99903014 000000660658806   000                                                 00559373+00000050025000000000000000000000000000000000000000000000000000000000000000000000000000000000000000000000000000000000000000000000000000000000000000000000000000000000000000000000000000000000000000000000000000000000000000050025
000085561626RAUL CONTRERAS GOMEZ                                                                                          99903037 000000051030621   000                                                 00083258+0000001834900083394+000000183490000000000000000000000000000000000000000000000000000000000000000000000000000000000000000000000000000000000000000000000000000000000000000000000000000000000000000000000000000000000000000000036698
000086467992MARCELA PEREIRA SANHUEZA                                                                                      99903027 000000034097035   000                                                 00003103+0000007128600003113+000000556920000000000000000000000000000000000000000000000000000000000000000000000000000000000000000000000000000000000000000000000000000000000000000000000000000000000000000000000000000000000000000000126978
000094484707ALEJANDRA MARTINI TIZNADO                                                                                     99903016 000000070019169   000                                                 00005305+0000012332099999999-0000000670400005283+0000009492000000000000000000000000000000000000000000000000000000000000000000000000000000000000000000000000000000000000000000000000000000000000000000000000000000000000000000000000211536
000097590443ECHEVERRIA MEDINA VERONICA                                                                                    99903504 000720100013102   000                                                 00017533+0000021632500017543+000001196370000000000000000000000000000000000000000000000000000000000000000000000000000000000000000000000000000000000000000000000000000000000000000000000000000000000000000000000000000000000000000000335962
000144341422ALEJANDRA BOLIVAR CACERES                                                                                     99903037 000000004703448   000                                                 00012027+0000038150400012100+0000045296299999999-0000000160800011974+0000072910300011973+0000031712900012187+0000020027800000000000000000000000000000000000000000000000000000000000000000000000000000000000000000000000000000000002079368
000590291404FRIMA S.A.                                                                                                    99903016 000000061012688   000                                                 00390164+0000019147299999999-0000001820600391876+0000016233199999999-0000006557600390182+000000374550000000000000000000000000000000000000000000000000000000000000000000000000000000000000000000000000000000000000000000000000000000307476
000761214500IND. CLEANER CHILE LTDA.                                                                                      99903001 000000012837410   000                                                 00009421+00000127461000000000000000000000000000000000000000000000000000000000000000000000000000000000000000000000000000000000000000000000000000000000000000000000000000000000000000000000000000000000000000000000000000000000000000127461
00076169670KPESQUERA TRANS ANTARTIC LTDA.                                                                                 99903037 000000003483495   000                                                 00041363+0000245685500041364+000004848580000000000000000000000000000000000000000000000000000000000000000000000000000000000000000000000000000000000000000000000000000000000000000000000000000000000000000000000000000000000000000002941713
000761869108SOCIEDAD DIAZ CEA Y CIA. LTDA.                                                                                99903012 000062900213781   000                                                 00053760+0000013605900053869+0000012401100054260+0000011494299999999-0000000337999999999-0000001182900053715+0000015097300000000000000000000000000000000000000000000000000000000000000000000000000000000000000000000000000000000000510777
000763607208LACTEOS FRUTILLAR S.A.                                                                                        99903037 000000004493460   000                                                 00046729+0000026248500046517+0000061208600045811+0000053576200000000000000000000000000000000000000000000000000000000000000000000000000000000000000000000000000000000000000000000000000000000000000000000000000000000000000000000001410333
000765416302SOC.PUNTA DE LOBOS S.A.                                                                                       99903037 000000001111701   000                                                 00064877+0000015959600064878+0000020490300064909+0000016807000064910+00000204903000000000000000000000000000000000000000000000000000000000000000000000000000000000000000000000000000000000000000000000000000000000000000000000000000737472
000772370601SOC. COM. DEEJAY LTDA.                                                                                        99903001 000000013898900   000                                                 00002613+00000616400000000000000000000000000000000000000000000000000000000000000000000000000000000000000000000000000000000000000000000000000000000000000000000000000000000000000000000000000000000000000000000000000000000000000000616400
000772585500CONSERVAS LOS ANGELES LTDA.                                                                                   99903001 000002300146802   000                                                 00095605+0000026631100095606+0000027353799999999-0000000742800000000000000000000000000000000000000000000000000000000000000000000000000000000000000000000000000000000000000000000000000000000000000000000000000000000000000000000000532420
00077380060KMANUFACTURAS DE PROD. DE ALUMN                                                                                99903001 000001810181502   000                                                 00072203+0000019620700072106+000001481200000000000000000000000000000000000000000000000000000000000000000000000000000000000000000000000000000000000000000000000000000000000000000000000000000000000000000000000000000000000000000000344327
000778324709DISTRI. DE ALIMENTOS DIDMAR                                                                                   99903037 000000003509192   000                                                 00131400+0000066380800131907+0000052571100132204+0000025750800131596+0000013081899999999-0000000369100131392+0000063600100131395+0000004826600131383+0000060234400131375+0000056607200131387+0000023001599999999-000000062830000003650569
000778324709DISTRI. DE ALIMENTOS DIDMAR                                                                                   99903037 000000003509192   000                                                 00129424+00000237888000000000000000000000000000000000000000000000000000000000000000000000000000000000000000000000000000000000000000000000000000000000000000000000000000000000000000000000000000000000000000000000000000000000000000237888
000780430907CERAMICA SERRA Y CIA. LTDA.                                                                                   99903012 000061500055021   000                                                 00007279+00000328985000000000000000000000000000000000000000000000000000000000000000000000000000000000000000000000000000000000000000000000000000000000000000000000000000000000000000000000000000000000000000000000000000000000000000328985
000780478705SOC.COM.E IND.APARICIO GARCIA                                                                                 99903037 000000054065965   000                                                 00015905+00002333566000000000000000000000000000000000000000000000000000000000000000000000000000000000000000000000000000000000000000000000000000000000000000000000000000000000000000000000000000000000000000000000000000000000000002333566
000781094706IND. DE ALIM. TRENDY S.A.                                                                                     99903016 000000012273881   000                                                 00402907+0000012237899999999-0000000539200403699+0000020637299999999-0000001288600404481+0000036391699999999-0000001783900000000000000000000000000000000000000000000000000000000000000000000000000000000000000000000000000000000000656549
000782093606MANUF. CARONI Y TORRES LTDA.                                                                                  99903001 000001480180401   000                                                 00017103+0000030524999999999-0000001264999999999-0000005715000000000000000000000000000000000000000000000000000000000000000000000000000000000000000000000000000000000000000000000000000000000000000000000000000000000000000000000000235450
000785759001PRODUCTOS DEL MAR Y AGRICOLA                                                                                  99903504 000790100001935   000                                                 00036378+0000074955700036271+000004240330000000000000000000000000000000000000000000000000000000000000000000000000000000000000000000000000000000000000000000000000000000000000000000000000000000000000000000000000000000000000000001173590
000788095600DIST. Y COM. DIMAK LTDA.                                                                                      99903037 000009025056205   000                                                 01056309+00000810875000000000000000000000000000000000000000000000000000000000000000000000000000000000000000000000000000000000000000000000000000000000000000000000000000000000000000000000000000000000000000000000000000000000000000810875
00078920800KCOM.MILKA LTDA.                                                                                               99903001 000002400082708   000                                                 00039190+00000395638000000000000000000000000000000000000000000000000000000000000000000000000000000000000000000000000000000000000000000000000000000000000000000000000000000000000000000000000000000000000000000000000000000000000000395638
000796847905PROMERCO S.A.                                                                                                 99903037 000000021011584   000                                                 00132588+0000023498999999999-0000002172500132596+0000043414200132590+00000085645000000000000000000000000000000000000000000000000000000000000000000000000000000000000000000000000000000000000000000000000000000000000000000000000000733051
000796855002COM. EL MONTE S.A.                                                                                            99903012 000037400002089   000                                                 01722645+0000027899601722704+000007356890000000000000000000000000000000000000000000000000000000000000000000000000000000000000000000000000000000000000000000000000000000000000000000000000000000000000000000000000000000000000000001014685
00079866090KCECINAS CHILLAN LTDA.                                                                                         99903027 000000041099961   000                                                 00421010+00000074042000000000000000000000000000000000000000000000000000000000000000000000000000000000000000000000000000000000000000000000000000000000000000000000000000000000000000000000000000000000000000000000000000000000000000074042
000799132508SOC.COM.FEDERAL INTERNAC. S.A.                                                                                99903001 000001800078900   000                                                 00174931+0000016831499999999-000001262570000000000000000000000000000000000000000000000000000000000000000000000000000000000000000000000000000000000000000000000000000000000000000000000000000000000000000000000000000000000000000000042057
000799213303EMILIO SARAY Y CIA LTDA.                                                                                      99903016 35401761          000                                                 00261556+0000026950099999999-0000001043100261555+0000017613900261805+00000095496000000000000000000000000000000000000000000000000000000000000000000000000000000000000000000000000000000000000000000000000000000000000000000000000000530704
000804942009DRAG PHARMA LIMITADA                                                                                          99903001 000001784021706   000                                                 00221789+0000002379800221797+0000014186500221796+0000005784100221818+00000011253000000000000000000000000000000000000000000000000000000000000000000000000000000000000000000000000000000000000000000000000000000000000000000000000000234757
000806348007MODINGER HNOS. S.A.                                                                                           99903016 000000025300032   000                                                 03143296+0000049562003137529+0000052509903137381+0000055867599999999-0000000200003147199+0000057653003147191+0000011203499999999-0000004528503131436+0000039029603131437+0000012736699999999-0000001029503149297+000002452320000002973272
000809559009SUAZO GOMEZ S.A.                                                                                              99903037 000005400021512   000                                                 00424976+0000034282399999999-000000226070000000000000000000000000000000000000000000000000000000000000000000000000000000000000000000000000000000000000000000000000000000000000000000000000000000000000000000000000000000000000000000320216
000810180005VELARDE HERMANOS S.A.                                                                                         99903037 000002001488538   000                                                 00940343+0000050358300940344+0000040989899999999-0000005713300938742+0000007017900943081+0000020802700943084+0000010153300000000000000000000000000000000000000000000000000000000000000000000000000000000000000000000000000000000001236087
000810941006COOP.AGRICOLA LECHERA LA UNION                                                                                99903001 000002541000704   000                                                 02929285+0000035939902929282+0000066438502929283+0000044848102929284+0000027346199999999-000000023140000000000000000000000000000000000000000000000000000000000000000000000000000000000000000000000000000000000000000000000000000001743412
000822626009COOP.AGRIC.PISQ.ELQUI LTDA.                                                                                   99903504 000890100017542   000                                                 02238870+0000084778502243101+0000015681202240813+0000014177500000000000000000000000000000000000000000000000000000000000000000000000000000000000000000000000000000000000000000000000000000000000000000000000000000000000000000000001146372
000828332007CRITALERIAS VIDECOR CHILE LTDA                                                                                99903001 000001581181210   000                                                 00039951+0000007235699999999-0000007000000040518+0000053721499999999-00000089633000000000000000000000000000000000000000000000000000000000000000000000000000000000000000000000000000000000000000000000000000000000000000000000000000449937
000831029005COMERCIAL CHACAO S.A                                                                                          99903001 000000168253715   000                                                 02151813+00000182105000000000000000000000000000000000000000000000000000000000000000000000000000000000000000000000000000000000000000000000000000000000000000000000000000000000000000000000000000000000000000000000000000000000000000182105
000839916000E. TABATT COMPA¥IA LTDA.                                                                                      99903012 000064300008265   000                                                 00365641+0000014642200365768+0000015359099999999-0000001946400365468+0000015089900365946+000000753370000000000000000000000000000000000000000000000000000000000000000000000000000000000000000000000000000000000000000000000000000000506784
00084398200KEMILIO SANDOVAL POO S.A.                                                                                      99903037 000008425023811   000                                                 01319277+0000025916499999999-0000002519201319276+0000004670899999999-0000000206701318221+0000010780199999999-0000000884501317576+0000010419499999999-0000000137401321301+0000019963299999999-0000002602801321853+000001516870000000805680
00084398200KEMILIO SANDOVAL POO S.A.                                                                                      99903037 000008425023811   000                                                 99999999-00000001390000000000000000000000000000000000000000000000000000000000000000000000000000000000000000000000000000000000000000000000000000000000000000000000000000000000000000000000000000000000000000000000000000000000000000001390
000844724004COMERCIAL SANTA ELENA S.A.                                                                                    99903037 000000000971243   000                                                 17505507+0000097834217505506+0000116100517505508+0000046917999999999-0000007983217618636+0000023149517618635+0000072440317618634+0000042998599999999-0000002665517618633+0000006756317502642+0000114835017502644+000011002870000006204122
000844724004COMERCIAL SANTA ELENA S.A.                                                                                    99903037 000000000971243   000                                                 17502643+0000056119799999999-0000022745517508402+0000056186017508403+0000059459517508404+0000033092517508405+0000007548999999999-0000001846017503460+0000005355099999999-0000000250017509283+00000217887000000000000000000000000002147088
00084476300KIND.DE ALIMENT.DOS EN UNO LTDA                                                                                99903037 000000001063944   000                                                 01237425+00000206928000000000000000000000000000000000000000000000000000000000000000000000000000000000000000000000000000000000000000000000000000000000000000000000000000000000000000000000000000000000000000000000000000000000000000206928
000845699003LECHERIAS LONCOMILLA LTDA.                                                                                    99903037 000000026032644   000                                                 00462829+0000019692199999999-0000000999400464568+0000017692999999999-00000020991000000000000000000000000000000000000000000000000000000000000000000000000000000000000000000000000000000000000000000000000000000000000000000000000000342865
000847508000LEVADURAS COLLICO S.A.                                                                                        99903037 000008700089788   000                                                 02028348+0000011526502028350+0000051680999999999-0000002846002028351+0000014303899999999-0000002000002028130+0000040683702028134+0000007724002028588+0000042221202028790+0000011264302028795+00000298880000000000000000000000000002044464
000850379009COMERCIAL PEUMO                                                                                               99903037 000008403600726   000                                                 00110554+0000012821200109966+0000060700300106565+0000077793100106563+0000123487000100945+0000035529000100943+0000174708800100944+0000076556800118176+0000042541200121149+0000054309700121150+00001096526000000000000000000000000007680997
000850678006PACEL S.A.                                                                                                    99903001 000002500060910   000                                                 00853970+0000019536699999999-0000008000200852435+0000012456899999999-0000004418800855341+0000007370499999999-0000000726700000000000000000000000000000000000000000000000000000000000000000000000000000000000000000000000000000000000262181
00085742400KPETERS HNOS. LTDA.                                                                                            99903037 000000060806489   000                                                 00147571+0000032811900147608+0000016707600147654+0000013273300000000000000000000000000000000000000000000000000000000000000000000000000000000000000000000000000000000000000000000000000000000000000000000000000000000000000000000000627928
000858441005COLGATE PALMOLIVE CHILE S.A                                                                                   99903001 1819708           000                                                 00433520+00000203229000000000000000000000000000000000000000000000000000000000000000000000000000000000000000000000000000000000000000000000000000000000000000000000000000000000000000000000000000000000000000000000000000000000000000203229
00085980800KSOC.VINICOLA MIGUEL TORRES S.A                                                                                99903037 000005400040711   000                                                 00165238+0000018623099999999-0000000502499999999-0000002661800165011+00000044085000000000000000000000000000000000000000000000000000000000000000000000000000000000000000000000000000000000000000000000000000000000000000000000000000198673
00086547900KS.A VI¥A SANTA RITA                                                                                           99903001 000000007903504   000                                                 05434657+0000055418899999999-0000001266199999999-0000050372905435109+0000112218405435110+0000116033899999999-0000069372905435108+00000497648000000000000000000000000000000000000000000000000000000000000000000000000000000000000002124239
000867499008CANALES Y CANALES Y CIA LTDA.                                                                                 99903037 000008238001812   000                                                 00030725+0000006949199999999-000000054180000000000000000000000000000000000000000000000000000000000000000000000000000000000000000000000000000000000000000000000000000000000000000000000000000000000000000000000000000000000000000000064073
00088566900KEMPRESA DIST. DE PAPELES Y CAR                                                                                99903037 000000901518682   000                                                 02270600+00000374036000000000000000000000000000000000000000000000000000000000000000000000000000000000000000000000000000000000000000000000000000000000000000000000000000000000000000000000000000000000000000000000000000000000000000374036
000888279008CONFECC.LADY GENNY LTDA.                                                                                      99903016 000000010519645   000                                                 00127703+00000363569000000000000000000000000000000000000000000000000000000000000000000000000000000000000000000000000000000000000000000000000000000000000000000000000000000000000000000000000000000000000000000000000000000000000000363569
000894445009CIA.AGR.QUILLAYES LTDA.                                                                                       99903037 000000025916255   000                                                 02848830+0000010404802851660+0000013346602851661+0000018395102851662+0000024158502773854+0000000329999999999-0000002186400000000000000000000000000000000000000000000000000000000000000000000000000000000000000000000000000000000000644485
000907270009CIA. MANUF. DE ACONCAGUA S.A.                                                                                 99903037 000002100301981   000                                                 00067877+0000053104699999999-000000163840000000000000000000000000000000000000000000000000000000000000000000000000000000000000000000000000000000000000000000000000000000000000000000000000000000000000000000000000000000000000000000514662
000910040006PROD. FERNANDEZ S.A.                                                                                          99903037 000005700023841   000                                                 16573055+0000012912916751388+0000024399016751309+0000003814216751389+0000039138599999999-0000000427899999999-0000051554416654129+0000019015016654128+0000038761016654130+0000042336699999999-0000001672116572753+000001583270000001425556
000910040006PROD. FERNANDEZ S.A.                                                                                          99903037 000005700023841   000                                                 16722977+0000021659416722978+0000045669599999999-0000000117416695532+0000021220916695531+0000019179316694564+0000003819916572304+0000009859716672854+0000005151516672853+0000029166516672905+0000041373999999999-000000012800000001968552
000910830007EMPRESAS TUCAPEL S.A.                                                                                         99903037 000000018202697   000                                                 00180780+0000004474400180769+0000018709200180770+0000055200500180771+00001570384000000000000000000000000000000000000000000000000000000000000000000000000000000000000000000000000000000000000000000000000000000000000000000000000002354225
000914380006CAMBIASO HNOS S.A.C.                                                                                          99903037 000000093970918   000                                                 00871377+0000015223900871107+0000016178100871106+0000017358900871108+0000029378200871283+000003445420000000000000000000000000000000000000000000000000000000000000000000000000000000000000000000000000000000000000000000000000000001125933
000921170009CHAMPION S.A.                                                                                                 99903001 000000006749203   000                                                 01525281+0000016073601527280+000003117410000000000000000000000000000000000000000000000000000000000000000000000000000000000000000000000000000000000000000000000000000000000000000000000000000000000000000000000000000000000000000000472477
000922790000CONSERV.PENTZKE S.A                                                                                           99903037 000000039913160   000                                                 00192309+00000149663000000000000000000000000000000000000000000000000000000000000000000000000000000000000000000000000000000000000000000000000000000000000000000000000000000000000000000000000000000000000000000000000000000000000000149663
000927780003CECINAS LA PREFERIDA                                                                                          99903037 000007400326384   000                                                 02197494+00000141997000000000000000000000000000000000000000000000000000000000000000000000000000000000000000000000000000000000000000000000000000000000000000000000000000000000000000000000000000000000000000000000000000000000000000141997
00093281000KCOCA COLA EMBONOR S.A.                                                                                        99903016 000000066088712   000                                                 09959374+0000064458409959375+0000015894910009939+0000165572310009940+0000004686110056907+0000012709410056905+0000053187210056906+0000015683099999999-000000462140000000000000000000000000000000000000000000000000000000000000000003275699
000935500001VIRUTEX ILKO S.A.                                                                                             99903037 000000042912255   000                                                 00151007+0000055963400151008+0000020690199999999-0000034011900000000000000000000000000000000000000000000000000000000000000000000000000000000000000000000000000000000000000000000000000000000000000000000000000000000000000000000000426416
00094528000KEVERCRISP SNACK PROD. DE CHILE                                                                                99903037 000000000976466   000                                                 32311471+0000007611232311470+0000048436899999999-0000002473332311472+0000017307499999999-0000001215499999999-0000006749632311619+0000006632199999999-0000000298932311617+0000032722632311618+0000012216832311816+000003211700000001463067
00094528000KEVERCRISP SNACK PROD. DE CHILE                                                                                99903037 000000000976466   000                                                 32311725+0000016821899999999-0000002529832311818+0000006595900000000000000000000000000000000000000000000000000000000000000000000000000000000000000000000000000000000000000000000000000000000000000000000000000000000000000000000000208879
000960290003PROCES. DE CARNES DEL SUR S.A.                                                                                99903037 000008700109444   000                                                 00505122+0000051035300506807+0000069521600505686+0000068346000505473+0000062598000506505+0000004387600506514+0000040511999999999-00000001105000000000000000000000000000000000000000000000000000000000000000000000000000000000000002962899
000965113304PURATO DE CHILE  S.A.                                                                                         99903001 000001564966900   000                                                 00828328+00000143967000000000000000000000000000000000000000000000000000000000000000000000000000000000000000000000000000000000000000000000000000000000000000000000000000000000000000000000000000000000000000000000000000000000000000143967
000965179607EVEREADY DE CHILE S.A.                                                                                        99903039 000000002402785   000                                                 00204836+0000023338200204900+000002514200000000000000000000000000000000000000000000000000000000000000000000000000000000000000000000000000000000000000000000000000000000000000000000000000000000000000000000000000000000000000000000484802
000965492909DBI CHILE  S.A                                                                                                99903037 000000040084525   000                                                 02028339+0000003469102028340+0000010091299999999-0000010000002028741+0000006307099999999-0000006000002028742+0000004499699999999-0000004000002028544+0000018864699999999-0000018800000000000000000000000000000000000000000000000000044315
000965579109ALIMENTOS Y FRUTOS S.A.                                                                                       99903037 000003154002149   000                                                 00583715+0000025668500583716+0000029877499999999-0000008886300585604+0000025777500585605+0000021394799999999-0000014941100588693+0000027830299999999-000000142490000000000000000000000000000000000000000000000000000000000000000001052960
000965689702DISTRIBUIDORA ERRAZURIZ S.A.                                                                                  99903037 000008200017464   000                                                 00638715+0000020529400638714+0000035068900638720+0000007669800638963+0000012617700638962+0000047368699999999-0000000181800638961+0000007964300638989+0000308233700638988+0000036406199999999-00000036018000000000000000000000000004720749
000965909109ALIMENTOS PANCHO VILLA S.A.                                                                                   99903037 000000000198285   000                                                 00222275+00000091272000000000000000000000000000000000000000000000000000000000000000000000000000000000000000000000000000000000000000000000000000000000000000000000000000000000000000000000000000000000000000000000000000000000000000091272
000965963405KEY COMPANY S.A.                                                                                              99903001 000001804002606   000                                                 00291956+0000041683600291957+0000034938500291969+0000007316200291827+0000033916999999999-000000169590000000000000000000000000000000000000000000000000000000000000000000000000000000000000000000000000000000000000000000000000000001161593
000966643005DIST. COM. NORTESUR S.A.                                                                                      99901037 000000000000000   000                                                 00227712+0000010133799999999-0000001958800227905+0000007597000227469+0000022688399999999-0000001616200227467+0000006330800228002+0000006077200228285+0000007309099999999-0000001608400000000000000000000000000000000000000000000000549526
000966654600GOOD FOOD  S.A.                                                                                               99903037 000000025744411   000                                                 00033161+00000091828000000000000000000000000000000000000000000000000000000000000000000000000000000000000000000000000000000000000000000000000000000000000000000000000000000000000000000000000000000000000000000000000000000000000000091828
000966686707VI¥A FRANCISCO DE AGUIRRE S.A.                                                                                99903001 000001202227404   000                                                 00547333+0000000838800550020+0000003323500549054+0000004294900000000000000000000000000000000000000000000000000000000000000000000000000000000000000000000000000000000000000000000000000000000000000000000000000000000000000000000000084572
000966814705CLOROX CHILE S.A.                                                                                             99903001 000001563287643   000                                                 00607450+0000061546600607451+0000062354699999999-0000009938600610187+0000003880400610188+0000054921099999999-0000000568200000000000000000000000000000000000000000000000000000000000000000000000000000000000000000000000000000000001721958
000967550205CGA CHILE S.A.                                                                                                99903037 000000000347230   000                                                 00028597+00000063277000000000000000000000000000000000000000000000000000000000000000000000000000000000000000000000000000000000000000000000000000000000000000000000000000000000000000000000000000000000000000000000000000000000000000063277
000967842605FRINAVA S.A.                                                                                                  99903037 000000004681444   000                                                 00058537+0000004466100058538+0000019529600058539+0000004897400058703+00000074435000000000000000000000000000000000000000000000000000000000000000000000000000000000000000000000000000000000000000000000000000000000000000000000000000363366
000967852902CHILEAN TRADING  COMPANY S.A.                                                                                 99903037 000000015050306   000                                                 00060913+00000120424000000000000000000000000000000000000000000000000000000000000000000000000000000000000000000000000000000000000000000000000000000000000000000000000000000000000000000000000000000000000000000000000000000000000000120424
000968722204PRODUCTOS TORRE S.A.                                                                                          99903001 000001010200203   000                                                 00436742+0000031786300436744+0000054398200436743+0000050535000436741+0000003046400441731+0000004255400441732+0000006697300000000000000000000000000000000000000000000000000000000000000000000000000000000000000000000000000000000001507186
000968754300LESAFFRE CHILE S.A. (SAF CHILE                                                                                99903001 000005362112271   000                                                 00007247+0000009283000007864+000001113960000000000000000000000000000000000000000000000000000000000000000000000000000000000000000000000000000000000000000000000000000000000000000000000000000000000000000000000000000000000000000000204226
000968913409DIREC                                                                                                         99903037 000000000139866   000                                                 00106376+0000010076900106882+000000665450000000000000000000000000000000000000000000000000000000000000000000000000000000000000000000000000000000000000000000000000000000000000000000000000000000000000000000000000000000000000000000167314
000969026708SANCELA CHILE S.A.                                                                                            99903504 000180100018436   000                                                 00014817+0000041324399999999-000000400870000000000000000000000000000000000000000000000000000000000000000000000000000000000000000000000000000000000000000000000000000000000000000000000000000000000000000000000000000000000000000000373156
000995246902DIST.ALIMENTOS CHILE S.A.                                                                                     99903037 000000004955889   000                                                 00024462+0000053161699999999-0000011516900024836+0000079254000025327+0000122505500025717+000007946820000000000000000000000000000000000000000000000000000000000000000000000000000000000000000000000000000000000000000000000000000003228724
000995354004DIST. LINARES S.A.                                                                                            99903037 000000003910920   000                                                 00832445+00000214793000000000000000000000000000000000000000000000000000000000000000000000000000000000000000000000000000000000000000000000000000000000000000000000000000000000000000000000000000000000000000000000000000000000000000214793
000995545608COMERCIAL CCU S.A.                                                                                            99903001 000002400464908   000                                                 22627438+0000026179222627439+0000004012422645804+0000018711822645805+0000016049422645806+0000082134522645807+0000004929399999999-0000000238622627440+0000025134822645801+0000018090622645798+0000034072022645799+000013082300000003598984
000995545608COMERCIAL CCU S.A.                                                                                            99903001 000002400464908   000                                                 02264580+0000011438899999999-0000011379422669901+0000017428122675946+0000009203822669902+0000048011022675947+0000024027022675948+0000000974299999999-0000000688022669903+0000261272399999999-0000008492322669904+000009005630000004418518
000995545608COMERCIAL CCU S.A.                                                                                            99903001 000002400464908   000                                                 99999999-0000003896322697405+0000006572022697408+0000000342422697406+0000041765022697407+0000004291922697402+0000015103322697403+0000016850222697404+0000005736822697401+0000012029499999999-00000008299000000000000000000000000000979648
000995765802BAGLEY CHILE S.A.                                                                                             99903037 000000003658430   000                                                 00157558+0000138195299999999-0000054292000159529+0000034876900000000000000000000000000000000000000000000000000000000000000000000000000000000000000000000000000000000000000000000000000000000000000000000000000000000000000000000001187801
