3116012009775753404008444277CARLOS TORO                        .                   ,.        000000000000852
3116012009775753404033811497VALLADARES MUÑOZ FRANCISCA DEL CARMB. O HIGGINS 501    ,PUCON    000000000004582
3116012009775753404039809915MARIA LUISA REBOLLEDO              ANSORENA 445 LOCAL 4,PUCON    000000000000448
3116012009775753404044682141HERNAN SORIANO AVILA               LLAFENCO, KM. 20 CAM,PUCON    000000000000852
3116012009775753404044796368CARRASCO CARRASCO HERTA            KM. 18 CAM. PUCON CA,PUCON    000000000000494
3116012009775753404046139259ARSENIO PEDRO CARLOS  ANDRADE ADRIAANSORENA 460        ,PUCON    000000000000886
3116012009775753404046640926LUIS HERNAN ECHEÑIQUE TALAVERA     CAM.AL VOLCAN KM.14.,PUCON    000000000000448
3116012009775753404047236207GEORGINA CASTILLO LUENGO           CAMPING LOS TRONCOS ,CABURGUA 000000000009072
3116012009775753404047801893NELSON FONSECA                     LINCOYAN 323        ,PUCON    000000000000418
3116012009775753404049118147MARIA SAAVEDRA YA;EZ               B. OHIGGINS 903     ,CURARREHU000000000001772
3116012009775753404050774813ELBA GONZALEZ CANALES              OHIGGINS 460        ,PUCON    000000000004890
311601200977575340405334268KFIGUEROA MUÑOZ ELIANA              O,HIGGINS 472 INTERI,PUCON    000000000000340
3116012009775753404054828217HERTA RASCHEYA CEBALLOS            LOS PILOS, CABURGUA ,PUCON    000000000024904
3116012009775753404056158308QUEZADA YAÑEZ REINALDO             ACEVEDO 540         ,PUCON    000000000003828
3116012009775753404057905344BLANCA SONIA AGUAYO YANEZ          SALTO CARILEUFU     ,PUCON    000000000003402
3116012009775753404059521691NOEMI VILLALOBOS SILVA             MIGUEL ANSORENA 343 ,PUCON    000000000000412
3116012009775753404060247110CARLOS GONZALEZ VERA               PARQUE TIERRAS VERDE,PUCON    000000000000790
3116012009775753404060333920ALEJANDRO JIMENEZ DIAZ             OHIGGINS 480        ,PUCON    000000000008426
311601200977575340406163150KLARA LARA ARMANDO ANTONIO          GENERAL URRUTIA 215 ,PUCON    000000000001436
3116012009775753404061811036MARIO PALMA GONZALEZ               ANSORENA N 302 PUCON,PUCON    000000000003804
3116012009775753404062690429EMA BARRA MATAMALA                 CABURGUA PLAYA BLANC,PUCON    000000000010704
3116012009775753404066080757JUAN RAUL SILVA                    MIGUEL ANSORENA 303 ,PUCON    000000000000448
3116012009775753404067088484SAEZ VALLEJOS BALBINA              LAS AZALEAS  564    ,PUCON    000000000082392
3116012009775753404068973341JUAN SAENZ-LAGUNA DIEZ             HOGGINS 524         ,PUCON    000000000000448
3116012009775753404069163580MARTIN VERGARA CONTRERAS           PLAYA NEGRA CABURGUA,PUCON    000000000008426
3116012009775753404070181940SILVIA MONARDES                    CAMINO QUELHUE SN   ,PUCON    000000000000494
3116012009775753404072357698MARIA RIFO JARA                    VILLA BRATZ PARCELA1,PUCON    000000000006502
3116012009775753404072844521LUIS A. SCHNEIDER Z.               KM. 5 CAMINO PUCON/V,PUCON    000000000000988
3116012009775753404073210127EVA   QUITULEF HUENTELEO           CAMINO INTERNACIONAL,CATRIPULL000000000001218
3116012009775753404077381406LORENZO SEGUNDO QUINTUN CARIMAN    PIEDRA MALA KM20 CAM,CURARREHU000000000001680
3116012009775753404077407200GRACIELA GUAJARDO HERNANDEZ        FRESIA 243 B        ,PUCON    000000000143894
3116012009775753404078572507CARLOS RICHARD GUDENSCHWAGER       KILOMETRO 32 CAMINO ,PUCON    000000000002658
3116012009775753404080083319SIMON GREGORIO CARRERA ALVAREZ     OHIGGINS 323        ,PUCON    000000000003190
3116012009775753404080602707ALVAREZ CARRASCO YOLANDA           FRESIA 125          ,PUCON    000000000013468
3116012009775753404081464707MARIA SOLEDAD MUÑOZ DUCROS.        PUERTO DEL ESTERO S/,PUCON    000000000002980
3116012009775753404083463201YAZMIN APARA                       FRESIA 354          ,PUCON    000000000015196
311601200977575340408352846KGLADYS FLORES RUIZ                 RINCONADA K 6       ,PUCON    000000000001876
3116012009775753404084322970VERGARA VALLADARES JORGE ALBERTO   PALGUIN 465         ,PUCON    000000000000618
3116012009775753404085579215COLIPE BURGOS ALVARITO MIGUEL      ARAUCO 450          ,PUCON    000000000003398
311601200977575340408564744KOYARCE OSCAR                       GENERAL URRUTIA 407 ,PUCON    000000000000132
3116012009775753404093337026PAREDES CARRASCO MARIA EUGENIA     VILLA CORDILLERA ALT,PUCON    000000000000938
3116012009775753404095257623VILLAGRAN JOHANA                   GERONIMO DE ALDERETE,PUCON    000000000000394
3116012009775753404097309884ERICA GOEPPINGER BARRERA           CAMINO INTERNACIONAL,PUCON    000000000003828
3116012009775753404101117928LAGOS AEDO MARIO SEBASTIAN         LOS BOLDOS 1330     ,PUCON    000000000001396
3116012009775753404101484408AGUILA RIQUELME MARIA TERESA       BRASIL 302          ,PUCON    000000000001286
3116012009775753404102463609PAULA GONZALEZ  RESTOVIC           FRESIA 246          ,PUCON    000000000001482
3116012009775753404102825810GUILLERMO AGUIRRE CIFUENTES        ARAUCO 560          ,PUCON    000000000000806
3116012009775753404103161932QUINTANA CHAVEZ HERMINDA ELOIDA    GRAL URRUTIA 417    ,PUCON    000000000010410
3116012009775753404104659349SAMUR JORQUERA MARIA EUGENIA       AVD. B O HIGGINS 635,PUCON    000000000000340
3116012009775753404106416419MARISOL CONTRERAS HEREDIA          O.HIGGINS 255       ,PUCON    000000000010322
3116012009775753404107449981GOMEZ ALFONSO CRISTIAN JORGE       LUIS THAYER OJEDA 78,SANTIAGO 000000000000120
3116012009775753404107526323ANA EPULEF P.                      CAM. INTERNACIONAL S,CURARREHU000000000004266
3116012009775753404108468521KARINA SAN MARTIN                  GENERAL URRUTIA 211 ,PUCON    000000000001428
3116012009775753404109167797JUAN PIZARRO YEVENES               JUAN CANIUMIL02014  ,TEMUCO   000000000005966
311601200977575340410951022KCRISTIAN ZERENE MISLE              FRESIA 300 A        ,PUCON    000000000000380
3116012009775753404114105473MOLINA CALFUNAO JOSE MIGUEL        CAM.INTERNACIONAL 22,PUCON    000000000016080
3116012009775753404114106097SANDRA QUINTEROS SANDOVAL          ECUADOR 345         ,PUCON    000000000000988
3116012009775753404121100657MARIELA VALENZUELA  BARROSO        FRESIA 315          ,PUCON    000000000000582
3116012009775753404121628155JOSE MANUEL REYES                  PALGUIN 260         ,PUCON    000000000001066
3116012009775753404122782670RODRIGO CURICHE SAEZ.              PALGUIN 690         ,PUCON    000000000000806
311601200977575340412335852KGERMAN FIGUEROA LARA               PJE LAS ROSAS 590   ,PUCON    000000000000614
3116012009775753404124865557RICARDO BENJAMIN ELTIT JADUE       HOLZAPHEL 190 LOC.6 ,PUCON    000000000045712
3116012009775753404125654150CARRASCO MILLAQUEO RAUL HERNAN     FRESIA 246          ,PUCON    000000000001390
3116012009775753404128096124PABLO ARRIAZA VILLALON             CAMINO A CABURGUA 11,CABURGUA 000000000002084
3116012009775753404131137095CANDICE SPIELBERG VERA             PALGUIN 495         ,PUCON    000000000003188
3116012009775753404131579780ZERENE HERRERA JAVIER              EL CLARO            ,PUCON    000000000001016
3116012009775753404133329641SEBASTIAN PACHECO ARANEDA          PASEJE LOLCO 43     ,PUCON    000000000000232
3116012009775753404133989080PEÑA COLIPE CARMEN GLORIA          KM. 17 OJOS DEL CABU,PUCON    000000000005316
3116012009775753404134650761MARIA MILLAN                       PUENTE BASAS GRANDE ,CURARREHU000000000000852
311601200977575340414076857KSILVIA INOSTROZA                   ANSORENA 271        ,PUCON    000000000000250
3116012009775753404141183818CRISTOBAL POLANCO                  STGO                ,STGO     000000000000119
3116012009775753404146396453ANDREAS BARTH                      CAMINO PUCON CABURGU,PUCON    000000000004840
3116012009775753404152281455NATALIA MUÑOZ SALGADO              KM. 12 CAMINO CABURG,PUCON    000000000002676
3116012009775753404152549695SOTO CARRASCO VANESSA DEL PILAR    LOS CHILCOS 165 INTE,PUCON    000000000004518
3116012009775753404152551428DARIO POBLETE                      PUCON               ,PUCON    000000000049156
3116012009775753404153809291SEBASTIAN BAEZA                    ARAUCO 429          ,PUCON    000000000000902
3116012009775753404162026984BRAATZ SEPULVEDA ROHSE MARGARE     FRESIA 124 C LOCAL 1,PUCON    000000000000066
3116012009775753404164256863MAURICIO RAIN                      OHIGGINS 297        ,CURARREHU000000000009568
311601200977575340416603258KPAMELA ALMEIDA RIFFO               KM 22 CABURGUA      ,CABURGUA 000000000000454
3116012009775753404533096212ALEGRIA PICHUMILLA VICTOR          PALGUIN 323         ,PUCON    000000000001748
3116012009775753404533099920ROMERO ZUÑIGA VANESSA Y OTRO       FRESIA 316          ,PUCON    000000000000120
3116012009775753404760075647HALES LIMITADA                     CAMINO INTERNACIONAL,PUCON    000000000000212
3116012009775753404760175323FRANZ Y CATALAN MYP LIMITADA.      MIGUEL ANSORENA #191,PUCON    000000000000420
3116012009775753404760360708SOCIEDAD COMERCIAL PATAGONIA SWEET FRESIA223           ,PUCON    000000000001766
3116012009775753404760372994COM.E INDUSTRIAL LTI LTDA          HOLZAPFEL 524       ,PUCON    000000000001810
3116012009775753404761725203COMERCIAL LA MAGA LIMITADA         GERONIMO DE ALDERETE,PUCON    000000000002508
3116012009775753404762792303ALIMENTOS RAP LIMITADA             BERNARDO OHIGGINS 61,PUCON    000000000000128
3116012009775753404763057402ECOTURISMO HUERQUEHUE PUCON        PARCELA 13 CAM. HUER,PUCON    000000000003244
3116012009775753404763208206SOC. GAST. ARCHIDUC S.A.           SANTA ROSA 79 OF. 32,SANTIAGO 000000000000990
3116012009775753404763264602SOC.LA GRANJA LTDA                 ANSORENA 190        ,PUCON    000000000000118
3116012009775753404763539105SUPERMERCADO SANTA VICTORIA LTDA.  SATURNINO EPULEF 152,VILLARRIC000000000613306
3116012009775753404763586901OCHO S.A.                          ANSORENA 191        ,PUCON    000000000001436
3116012009775753404763877108SOC . MADRE TIERRA LTDA            GENERAL URRUTIA #199,PUCON    000000000000924
3116012009775753404764233204COM. EVENTOS C Y R LMTDA.          O HIGGINS 447B. SUC ,PUCON    000000000000454
3116012009775753404766720501COMERCIALIZADORA PRODUCTOS         OHIGGINS   LINCOYAN ,PUCON    000000000004436
3116012009775753404767104502SOC. GASTRONOMICA NOBIS VIETTI Y HALINCOYAN361         ,PUCON    000000000050832
3116012009775753404769583904SOCIEDAD COMERCIAL CAFE DE LA P LTDOHIGGINS 291        ,PUCON    000000000067258
3116012009775753404770099102GASTRONOMICA NAUKANA LTDA.         FRESIA 236          ,PUCON    000000000001484
3116012009775753404772137508VILLARRICAS PEAK                   O.HIGGINS 597       ,PUCON    000000000006486
3116012009775753404774469508.NTONIO YOLITO BALART E HIJA LTDA  O HIGGINS 311       ,PUCON    000000000000896
3116012009775753404774993606CONSTRUCTORA Y COMERCIALIZADORA ARAOHIGGINS 669 OF. 105,PUCON    000000000008334
3116012009775753404775918403INAGRIFORAC LIMITADA               CASILLA #154        ,PUCON    000000000004214
3116012009775753404776158801SOC TURISMO Y COMERCIAL PUELCHE LIMFRESIA 124 B        ,PUCON    000000000005152
3116012009775753404778254107RENTAS E INVERSIONES AINOHA LIMITADMANUEL MONTT 850 OF.,TEMUCO   000000000000366
311601200977575340478329270KCOMERCIAL SUIZA LTDA               AVDA.BDO. O HIGGINS ,PUCON    000000000064256
311601200977575340478471490KRESTAURANTE MARMONHI LTDA.         ECUADOR 175         ,PUCON    000000000022878
3116012009775753404786656001PISCICOLA HUILILCO LTDA.           PUCON CABURGA KM.17 ,PUCON    000000000007134
3116012009775753404798006002AQUACHILE S.A                      CARDONAL S/N LOTE B ,PUERTO MO000000000000938
3116012009775753404967522708HOTEL ANTUMALAL S.A.               KM2 PUCON A VILLARRI,PUCON    000000000008554
