000789192405COM. E IND.  PEPEPOK  LTDA                                                                                    99903037 000000020963212                                                       00005222+0000046010200005252+0000050765400005209+0000046010200000000000000000000000000000000000000000000000000000000000000000000000000000000000000000000000000000000000000000000000000000000000000000000000000000000000000000000001427858
000797544809TECOM. Y SERV CONOSUR LTDA                                                                                    99903001 000000163559595                                                       00004550+0000081568600004558+000004799630000000000000000000000000000000000000000000000000000000000000000000000000000000000000000000000000000000000000000000000000000000000000000000000000000000000000000000000000000000000000000001295649
000931080008TEXTILES Y CONF. ANGEL BENDEK HNOS Y CIA                                                                      99903001 000001787207200                                                       00114978+0000034231500114914+000008071890000000000000000000000000000000000000000000000000000000000000000000000000000000000000000000000000000000000000000000000000000000000000000000000000000000000000000000000000000000000000000001149504
000763066851U.A. CHILE SPA.                                                                                               99903001 000000406577082                                                       00004348+0000159762400004347+0000359690900004378+0000390866100004350+0000336040900004349+000040165190000000000000000000000000000000000000000000000000000000000000000000000000000000000000000000000000000000000000000000000000000016480122
