000760223824AMALIA JEANS LTDA.                                                                                            99903001 000001560283807                                                       00001570+00000242034000000000000000000000000000000000000000000000000000000000000000000000000000000000000000000000000000000000000000000000000000000000000000000000000000000000000000000000000000000000000000000000000000000000000000242034
000785075706COMERCIAL SAN FERNANDO LIMITADA                                                                               99903016 000000011614471                                                       00030312+0000021141500030247+0000008026100030246+0000052326900000000000000000000000000000000000000000000000000000000000000000000000000000000000000000000000000000000000000000000000000000000000000000000000000000000000000000000000814945
000760749389DEPORTES SPARTA LTDA                                                                                          99903016 000000010613749                                                       00225293+0000093924200225458+0000098173900225511+0000077025700225540+0000082661800225546+000008436030000000000000000000000000000000000000000000000000000000000000000000000000000000000000000000000000000000000000000000000000000004361459
000764857038DIST. TOPIARY SPA.                                                                                            99903037 000000069703461                                                       00000136+00001777003000000000000000000000000000000000000000000000000000000000000000000000000000000000000000000000000000000000000000000000000000000000000000000000000000000000000000000000000000000000000000000000000000000000000001777003
000761844091ECOGAR COM. S.A.                                                                                              99903037 000000065783525                                                       00010559+0000064372800010636+0000005525400003157+0000107613100000000000000000000000000000000000000000000000000000000000000000000000000000000000000000000000000000000000000000000000000000000000000000000000000000000000000000000001775113
000966754508GRYLAN S.A.                                                                                                   99903001 000001693064100                                                       00005580+00001520763000000000000000000000000000000000000000000000000000000000000000000000000000000000000000000000000000000000000000000000000000000000000000000000000000000000000000000000000000000000000000000000000000000000000001520763
00089650200KDOITE INTERNACIONAL S.A.                                                                                      99903037 000000038026437                                                       00019530+0000394604200019531+0000424169300019532+0000537382600019533+00004925769000000000000000000000000000000000000000000000000000000000000000000000000000000000000000000000000000000000000000000000000000000000000000000000000018487330
000795526900PILLIN S.A.                                                                                                   99903012 000000000509639                                                       00031409+0000041308500031484+0000025872100031417+0000028467200031554+0000030395000031529+0000032836900031606+0000003689600031302+0000046149400031195+0000022469600031365+0000025639700031346+0000042850700031388+000002918480000003288635
000795526900PILLIN S.A.                                                                                                   99903012 000000000509639                                                       00031658+0000015957900031507+0000036319800031431+0000040398100031537+0000035991000031576+000003067340000000000000000000000000000000000000000000000000000000000000000000000000000000000000000000000000000000000000000000000000000001593402
000777307800MANUFACTURAS E IMP. TITANIUM CHILE LTDA.                                                                      99903037 000000007101309                                                       00007863+0000044314800008011+000002504750000000000000000000000000000000000000000000000000000000000000000000000000000000000000000000000000000000000000000000000000000000000000000000000000000000000000000000000000000000000000000000693623
000766223206PANASONIC CHILE LTDA.                                                                                         99903001 000000006219610                                                       00014495+00002879800000000000000000000000000000000000000000000000000000000000000000000000000000000000000000000000000000000000000000000000000000000000000000000000000000000000000000000000000000000000000000000000000000000000000002879800
000778792400SAMSUNG ELECTRONICS CHILE LTDA                                                                                99903037 000000063458112                                                       00368673+0000055245800370373+0000214190000368672+0000199992600000000000000000000000000000000000000000000000000000000000000000000000000000000000000000000000000000000000000000000000000000000000000000000000000000000000000000000004694284
000931080008TEXTILES Y CONF. ANGEL BENDEK HNOS Y CIA                                                                      99903001 000001787207200                                                       00115262+00000891036000000000000000000000000000000000000000000000000000000000000000000000000000000000000000000000000000000000000000000000000000000000000000000000000000000000000000000000000000000000000000000000000000000000000000891036
